:100000000C942A000C9424050C9458050C94470079
:100010000C9447000C9447000C9447000C94470044
:100020000C9447000C9447000C9447000C94470034
:100030000C9447000C9447000C9447000C94470024
:100040000C9447000C9447000C948C050C944700CA
:100050000C94470011241FBECFE5D4E0DEBFCDBF16
:1000600010E0A0E6B0E0E8E2F6E102C005900D92F3
:10007000AC38B107D9F710E0ACE8B0E001C01D9290
:10008000A839B107E1F70E949F0A0C94120B0C9457
:100090000000DF93CF93CDB7DEB72A970FB6F89461
:1000A000DEBF0FBECDBF9A83898389819A819093E9
:1000B0008D0080938C0029E230E0E981FA81818112
:1000C0009281A381B481F9018083A9E2B0E0E9E2E1
:1000D000F0E082818D7F12968C931297E981FA81EC
:1000E0008681282F30E03A87298789859A85813053
:1000F0009105C9F0E985FA85E230F10519F1298504
:100100003A852115310599F5A0E4B0E0E0E4F0E08E
:10011000808180688C93A0E4B0E0E0E4F0E080812E
:100120008F7C8C9324C0A0E4B0E0E0E4F0E0808118
:1001300080688C93A0E4B0E0E0E4F0E0808180632C
:100140008C9315C0A0E4B0E0E0E4F0E0808180682A
:100150008C93A0E4B0E0E0E4F0E080818F7E8C93AB
:10016000A0E4B0E0E0E4F0E0808180628C93E9817B
:10017000FA818581E82FF0E0F887EF832F813885B9
:100180002230310509F458C08F819885833091055C
:1001900054F4EF81F885309799F02F81388521301C
:1001A000310561F1A2C08F8198858330910509F4F2
:1001B00061C0EF81F885E430F10509F479C095C09C
:1001C000A0E4B0E0E0E4F0E0808180688C93A9E2F4
:1001D000B0E0E9E2F0E081818B7F11968C93A0E49E
:1001E000B0E0E0E4F0E080818D7F8C93A0E4B0E0AB
:1001F000E0E4F0E080818B7F8C9377C0A0E4B0E0F6
:10020000E0E4F0E0808180688C93A9E2B0E0E9E26C
:10021000F0E081818B7F11968C93A0E4B0E0E0E464
:10022000F0E0808182608C93A0E4B0E0E0E4F0E054
:1002300080818B7F8C9359C0A0E4B0E0E0E4F0E0D3
:10024000808180688C93A9E2B0E0E9E2F0E08181EE
:100250008B7F11968C93A0E4B0E0E0E4F0E0808125
:100260008D7F8C93A0E4B0E0E0E4F0E080818460D6
:100270008C933BC0A0E4B0E0E0E4F0E080818068D3
:100280008C93A9E2B0E0E9E2F0E081818B7F1196E6
:100290008C93A0E4B0E0E0E4F0E0808182608C9395
:1002A000A0E4B0E0E0E4F0E0808184608C931DC0C5
:1002B000A0E4B0E0E0E4F0E0808180688C93A9E203
:1002C000B0E0E9E2F0E08181846011968C93A0E4D3
:1002D000B0E0E0E4F0E0808182608C93A0E4B0E0E4
:1002E000E0E4F0E0808184608C93E981FA81878189
:1002F000282F30E03E832D838D819E81009731F041
:10030000ED81FE81E130F10581F01DC0A0E4B0E097
:10031000E0E4F0E0808180688C93A0E4B0E0E0E469
:10032000F0E08081877F8C930EC0A0E4B0E0E0E431
:10033000F0E0808180688C93A0E4B0E0E0E4F0E03D
:10034000808188608C93E981FA818081813079F4A1
:10035000A0E4B0E0E0E4F0E0808180688C93A0E469
:10036000B0E0E0E4F0E0808180648C9313C0E98128
:10037000FA818081882371F4A0E4B0E0E0E4F0E049
:10038000808180688C93A0E4B0E0E0E4F0E08081BC
:100390008F7B8C93E981FA818085282F30E03C8324
:1003A0002B838B819C818130910509F447C0EB81BF
:1003B000FC81E230F10534F42B813C8121153105BB
:1003C00069F06BC08B819C8182309105F9F0EB81E3
:1003D000FC81E330F10509F449C05FC0A9E2B0E057
:1003E000E9E2F0E081818F7711968C93A9E2B0E089
:1003F000E9E2F0E081818F7B11968C93AFE5B0E06C
:10040000EFE5F0E080818F778C9347C0A9E2B0E000
:10041000E9E2F0E08181806811968C93A9E2B0E076
:10042000E9E2F0E081818F7B11968C93AFE5B0E03B
:10043000EFE5F0E0808180688C932FC0A9E2B0E006
:10044000E9E2F0E081818F7711968C93A9E2B0E028
:10045000E9E2F0E08181806411968C93AFE5B0E031
:10046000EFE5F0E0808180688C9317C0A9E2B0E0EE
:10047000E9E2F0E08181806811968C93A9E2B0E016
:10048000E9E2F0E08181806411968C93AFE5B0E001
:10049000EFE5F0E0808180688C93A9E2B0E0E9E2CA
:1004A000F0E08181806111968C93A9E2B0E0E9E2ED
:1004B000F0E08181886011968C9311972A960FB68F
:1004C000F894DEBF0FBECDBFCF91DF910895DF93CB
:1004D000CF9300D00F92CDB7DEB789836A838A812C
:1004E000882361F0E9E2F0E0828182958695877049
:1004F000882F90E0817090700097A1F3E9E2F0E01E
:10050000818186958695882F90E0817090708823F0
:1005100059F0E9E2F0E08181E9E2F0E01182E9E2FC
:10052000F0E08981838304C0E9E2F0E0898183837C
:100530000F900F900F90CF91DF910895DF93CF939D
:1005400000D00F92CDB7DEB78B831A8219828B81D0
:10055000882329F0E9E2F0E082818823DCF7E9E2F0
:10056000F0E0818186958695882F90E0817090706B
:100570008823D9F0E9E2F0E081818695882F90E028
:10058000982F88279C0189819A81822B932B9A83AB
:100590008983E9E2F0E08381282F30E089819A8124
:1005A000822B932B9A8389830BC0E9E2F0E083814D
:1005B000282F30E089819A81822B932B9A8389831B
:1005C00089819A810F900F900F90CF91DF910895BC
:1005D000DF93CF9300D0CDB7DEB79A83898317C05E
:1005E000E9E2F0E08281829586958770882F90E01D
:1005F000817090700097A1F3E981FA81808161E0B8
:100600000E94670289819A8101969A838983E98190
:10061000FA818081882321F7E9E2F0E082818295E6
:1006200086958770882F90E0817090700097A1F375
:10063000E9E2F0E083E283830F900F90CF91DF91A6
:100640000895DF93CF9300D0CDB7DEB79A83898327
:10065000E9E2F0E082818823DCF7E9E2F0E08381DF
:10066000E981FA818083E981FA818081833231F0E6
:1006700089819A8101969A838983EACF0F900F909E
:10068000CF91DF910895DF93CF9300D000D0CDB705
:10069000DEB79A838983E0918C00F0918D0001840C
:1006A000F285E02D09950F900F900F900F90CF914C
:1006B000DF910895DF93CF9300D000D0CDB7DEB7A0
:1006C0009A8389837C836B83EB81FC818181813078
:1006D00069F4E981FA818181982FEB81FC81808125
:1006E00080958923E981FA8181832BC0EB81FC818C
:1006F00081818230B9F4E981FA818181982FEB817F
:10070000FC81808180958923E981FA818183E98157
:10071000FA819281EB81FC818081892BE981FA81C8
:1007200082830FC0EB81FC818181833051F4E981A8
:10073000FA819181EB81FC818081892BE981FA81A9
:1007400081830F900F900F900F90CF91DF910895BC
:10075000DF93CF9300D0CDB7DEB79A838983E98149
:10076000FA811182E981FA8112820F900F90CF9164
:10077000DF910895DF93CF9300D000D0CDB7DEB7DF
:100780009A8389836B83E981FA8190818B818923A4
:10079000882319F081E08C8301C01C828C810F902A
:1007A0000F900F900F90CF91DF910895DF93CF932B
:1007B00000D0CDB7DEB79A838983E981FA81808141
:1007C0000F900F90CF91DF910895DF93CF9300D0DA
:1007D00000D0CDB7DEB79A8389836B834C838C813D
:1007E000813049F4E981FA8192818B81892BE981F9
:1007F000FA8182830AC0E981FA818281982F8B81F4
:1008000080958923E981FA8182830F900F900F9060
:100810000F90CF91DF910895DF93CF9300D00F9287
:10082000CDB7DEB79A8389836B83E981FA818B81A7
:1008300082830F900F900F90CF91DF910895DF93F7
:10084000CF9300D00F92CDB7DEB79A8389836B83A5
:10085000E981FA8192818B818927E981FA818283FA
:100860000F900F900F90CF91DF910895DF93CF936A
:10087000CDB7DEB7A5E5B0E0E5E5F0E08081807FAB
:100880008C93A4E5B0E0E4E5F0E080818F7B8C936D
:10089000ABE5B0E0EBE5F0E080818F718C93AAE5E9
:1008A000B0E0EAE5F0E08081806E8C93AFE5B0E0E7
:1008B000EFE5F0E080818F778C93CF91DF91089501
:1008C0001F93DF93CF9300D000D0CDB7DEB79C83CA
:1008D0008B83EB81FC818381898381E08A83EB8137
:1008E000FC81818192819E012F5F3F4FB9010E945F
:1008F0005A03A5E5B0E0E5E5F0E08081807F8C93C8
:10090000A4E5B0E0E4E5F0E080818F7B8C93EB819F
:10091000FC818081882329F0EB81FC8180818130FA
:10092000E1F4A5E5B0E0E5E5F0E08081482FEB815A
:10093000FC818581282F30E0EB81FC818081882F2C
:1009400090E0880F991FB90102C0660F771F8A9542
:10095000E2F7CB01842B8C9322C0A4E5B0E0E4E560
:10096000F0E08081182FEB81FC81858193E0692F75
:100970000E94060B482F50E0EB81FC818081282FDC
:1009800030E0C901880F991F820F931F9A0102C09E
:10099000220F331F8A95E2F7C901812B8C93EB81DB
:1009A000FC818081882F90E0EB81FC81278130855C
:1009B000880F991FFC01E257FF4F31832083EB81A1
:1009C000FC8186818130B1F4ABE5B0E0EBE5F0E08D
:1009D0008081482FEB81FC818481282F30E081E0E9
:1009E00090E0022E02C0880F991F0A94E2F7842B30
:1009F0008C931BC0EB81FC8186818823B1F4ABE52D
:100A0000B0E0EBE5F0E08081482FEB81FC81848150
:100A1000282F30E081E090E0022E02C0880F991F5D
:100A20000A94E2F7809584238C93AFE5B0E0EFE57C
:100A3000F0E0808180688C930F900F900F900F9062
:100A4000CF91DF911F9108951F920F920FB60F92D1
:100A500011242F933F934F935F936F937F938F93C3
:100A60009F93AF93BF93EF93FF93DF93CF93CDB754
:100A7000DEB7E0918E00F0918F000995AAE5B0E015
:100A8000EAE5F0E0808180648C93CF91DF91FF9163
:100A9000EF91BF91AF919F918F917F916F915F91F6
:100AA0004F913F912F910F900FBE0F901F9018956F
:100AB0001F920F920FB60F9211242F933F934F93D3
:100AC0005F936F937F938F939F93AF93BF93EF93B6
:100AD000FF93DF93CF93CDB7DEB7E0919000F09115
:100AE00091000995AAE5B0E0EAE5F0E08081806830
:100AF0008C93CF91DF91FF91EF91BF91AF919F9137
:100B00008F917F916F915F914F913F912F910F90B6
:100B10000FBE0F901F9018951F920F920FB60F9255
:100B200011242F933F934F935F936F937F938F93F2
:100B30009F93AF93BF93EF93FF93DF93CF93CDB783
:100B4000DEB7E0919200F09193000995AAE5B0E03C
:100B5000EAE5F0E0808180628C93CF91DF91FF9194
:100B6000EF91BF91AF919F918F917F916F915F9125
:100B70004F913F912F910F900FBE0F901F9018959E
:100B8000DF93CF93CDB7DEB72C970FB6F894DEBFC7
:100B90000FBECDBF69877A878B879C8719821A829F
:100BA0001B821C8224C01D821E821F8218860BC0DD
:100BB0008D819E81AF81B8850196A11DB11D8D8368
:100BC0009E83AF83B8878D819E81AF81B8858F3F2B
:100BD0009105A105B10560F389819A81AB81BC8142
:100BE0000196A11DB11D89839A83AB83BC832981A2
:100BF0003A814B815C8189859A85AB85BC852817B4
:100C000039074A075B0778F22C960FB6F894DEBFD7
:100C10000FBECDBFCF91DF910895DF93CF93CDB7B6
:100C2000DEB764E170E080E090E00E94C00588E0FB
:100C30008093940083E08093950024E930E086E37C
:100C400090E0B9010E945A0382E08093940083E00F
:100C50008093950024E930E086E390E0B9010E949A
:100C60005A0384E08093940083E08093950024E904
:100C700030E086E390E0B9010E945A0386E390E0F9
:100C800068E040E00E94E50386E390E062E040E037
:100C90000E94E50386E390E064E040E00E94E50303
:100CA00081E08093940083E08093950024E930E014
:100CB00089E390E0B9010E945A0382E08093940096
:100CC00083E08093950024E930E089E390E0B90166
:100CD0000E945A0384E08093940083E080939500FF
:100CE00024E930E089E390E0B9010E945A0388E0EA
:100CF0008093940083E08093950024E930E089E3B9
:100D000090E0B9010E945A0380E18093940083E04F
:100D10008093950024E930E089E390E0B9010E94D6
:100D20005A0380E28093940083E08093950024E945
:100D300030E089E390E0B9010E945A0380E4809397
:100D4000940083E08093950024E930E089E390E00B
:100D5000B9010E945A0380E88093940083E0809355
:100D6000950024E930E089E390E0B9010E945A033C
:100D70006FE070E080E090E00E94C00588E30E9490
:100D8000FD070E94CF068FE00E94FD0786E00E94CB
:100D9000FD0780E80E94FD07CF91DF910895DF9362
:100DA000CF93CDB7DEB781E00E94FD07CF91DF91F1
:100DB0000895DF93CF93CDB7DEB781E080939400A1
:100DC00081E08093950024E930E089E390E0B90167
:100DD0000E945A0382E08093940081E08093950002
:100DE00024E930E089E390E0B9010E945A0384E0ED
:100DF0008093940081E08093950024E930E089E3BA
:100E000090E0B9010E945A0388E08093940081E049
:100E10008093950024E930E089E390E0B9010E94D5
:100E20005A0380E18093940081E08093950024E947
:100E300030E089E390E0B9010E945A0380E2809398
:100E4000940081E08093950024E930E089E390E00C
:100E5000B9010E945A0380E48093940081E080935A
:100E6000950024E930E089E390E0B9010E945A033B
:100E700080E88093940081E08093950024E930E03D
:100E800089E390E0B9010E945A0386E390E064E0B0
:100E900041E00E94E50386E390E062E040E00E94CA
:100EA000E5030E94C40781E08093940083E080936F
:100EB000950024E930E089E390E0B9010E945A03EB
:100EC00082E08093940083E08093950024E930E0F1
:100ED00089E390E0B9010E945A0384E08093940072
:100EE00083E08093950024E930E089E390E0B90144
:100EF0000E945A0388E08093940083E080939500D9
:100F000024E930E089E390E0B9010E945A0380E1CE
:100F10008093940083E08093950024E930E089E396
:100F200090E0B9010E945A0380E28093940083E02C
:100F30008093950024E930E089E390E0B9010E94B4
:100F40005A0380E48093940083E08093950024E921
:100F500030E089E390E0B9010E945A0380E8809371
:100F6000940083E08093950024E930E089E390E0E9
:100F7000B9010E945A0386E390E064E040E00E94D9
:100F8000E503CF91DF910895DF93CF93CDB7DEB71F
:100F900086E390E068E041E00E94E50362E370E0F0
:100FA00080E090E00E94C00586E390E068E040E0C9
:100FB0000E94E503CF91DF910895DF93CF9300D096
:100FC000CDB7DEB789836A838981813039F48A811C
:100FD000803120F48A8180580E94FD078981823007
:100FE00039F48A81803120F48A8180540E94FD077F
:100FF0000F900F90CF91DF910895DF93CF930F92D1
:10100000CDB7DEB7898389E390E069810E940C0443
:1010100086E390E062E040E00E94E50386E390E032
:1010200064E040E00E94E50361E070E080E090E071
:101030000E94C0050E94C4070F90CF91DF910895D0
:10104000DF93CF930F92CDB7DEB7898389E390E02A
:1010500069810E940C0486E390E064E040E00E9415
:10106000E50386E390E062E041E00E94E50361E091
:1010700070E080E090E00E94C0050E94C4070F90DD
:10108000CF91DF910895DF93CF9300D000D0CDB7FB
:10109000DEB79C838B831A82198227C089819A814B
:1010A00001969A838983EB81FC8120818B819C81CD
:1010B00001969C838B83822F0E94200889819A81CC
:1010C0008031910529F482E060E00E94DD070DC0C7
:1010D00089819A818032910541F40E94CF0681E096
:1010E00060E00E94DD071A821982EB81FC81808119
:1010F0008823A1F60F900F900F900F90CF91DF9162
:101100000895DF93CF93CDB7DEB780E40E94FD074B
:1011100080E00E9420088AE00E9420088FE10E945F
:1011200020088FE10E9420088FE10E9420088EE0B5
:101130000E94200884E00E94200880E00E9420088D
:1011400080E80E94FD0780E00E94200860E177E2CD
:1011500080E090E00E94C005CF91DF910895DF9379
:10116000CF93CDB7DEB72C970FB6F894DEBF0FBE86
:10117000CDBF69877A878B879C871D821E821F82DD
:10118000188624C019821A821B821C820BC0898196
:101190009A81AB81BC810196A11DB11D89839A837F
:1011A000AB83BC8389819A81AB81BC818F3F9105E0
:1011B000A105B10560F38D819E81AF81B88501964F
:1011C000A11DB11D8D839E83AF83B8872D813E8184
:1011D0004F81588589859A85AB85BC852817390745
:1011E0004A075B0778F22C960FB6F894DEBF0FBE65
:1011F000CDBFCF91DF910895DF93CF93CDB7DEB709
:1012000081E08093960082E08093970026E930E0A9
:1012100080E390E0B9010E945A0382E08093960037
:1012200082E08093970026E930E080E390E0B90106
:101230000E945A0384E08093960082E08093970096
:1012400026E930E080E390E0B9010E945A0388E08B
:101250008093960082E08093970026E930E080E357
:1012600090E0B9010E945A0380E18093960083E0E8
:101270008093970026E930E080E390E0B9010E9476
:101280005A0380E28093960083E08093970026E9DA
:1012900030E080E390E0B9010E945A0380E480933B
:1012A000960083E08093970026E930E080E390E0A9
:1012B000B9010E945A0380E88093960083E08093EE
:1012C000970026E930E080E390E0B9010E945A03DC
:1012D00080E390E06FEF0E940C04CF91DF910895BE
:1012E000DF93CF93CDB7DEB727970FB6F894DEBF65
:1012F0000FBECDBF1C821B8210C1809183009091D4
:101300008400282F80E390E0622F41E00E94E503F3
:101310008091850090918600282F80E390E0622FD5
:1013200041E00E94E5038091870090918800282F7A
:1013300080E390E0622F41E00E94E5038091890004
:1013400090918A00282F80E390E0622F41E00E9474
:10135000E5038B819C81880F991FFC01ED57FF4F9E
:1013600080819181282F80E390E0622F40E00E94ED
:10137000E5031A821982C6C089819A81880F991F54
:10138000FC01E558FF4F80819181282F80E390E098
:10139000622F0E94BA03882309F0AFC089819A8125
:1013A000880F991FFC01E558FF4F80819181282FFC
:1013B00080E390E0622F0E94BA03882379F38B8147
:1013C0009C819F838E838E819F8181309105B9F1AD
:1013D0008E819F81823091052CF48E819F810097B0
:1013E00071F08BC08E819F818230910509F447C0D6
:1013F0008E819F818330910509F460C07EC0898110
:101400009A81009719F497E39D838FC089819A810F
:101410008130910519F484E38D8387C089819A8195
:101420008230910519F491E39D837FC089819A816F
:101430008330910509F061C08FE38D8376C0898187
:101440009A81009719F498E39D836FC089819A81EE
:101450008130910519F485E38D8367C089819A8174
:101460008230910519F492E39D835FC089819A814E
:101470008330910509F041C080E38D8356C0898196
:101480009A81009719F499E39D834FC089819A81CD
:101490008130910519F486E38D8347C089819A8153
:1014A0008230910519F493E39D833FC089819A812D
:1014B0008330910511F58DE38D8337C089819A8141
:1014C000009719F49FE29D8330C089819A81813011
:1014D000910519F48AE28D8328C089819A8182302E
:1014E000910519F49DE29D8320C089819A81833002
:1014F000910519F48BE28D8318C089819A81019638
:101500009A83898389819A81843091050CF434CF40
:101510008B819C8101969C838B838B819C81843001
:1015200091050CF4EACE91E49D838D8127960FB648
:10153000F894DEBF0FBECDBFCF91DF910895DF934A
:10154000CF93CDB7DEB7C257D0400FB6F894DEBF09
:101550000FBECDBF0E940D060E94CF0680E690E030
:101560000E94430880E790E09B838A83FE01E8594C
:10157000FF4F1082FE01E859FF4F83E390E0A0E0A7
:10158000B0E081839283A383B483FE01E859FF4FC7
:1015900083E08583FE01E859FF4F1682FE01E8597A
:1015A000FF4F1782FE01E859FF4F1086FE01E859F0
:1015B000FF4F12861186CE0188599F4F0E94490025
:1015C0008A819B810E94E802CE0104960E94210339
:1015D0000E94CF0619820EC08981282F30E0CE01EB
:1015E0000496FC01E20FF31F80810E94200889818C
:1015F0008F5F89838981282F30E0CE010496FC011A
:10160000E20FF31F8081833239F7F4CF991B79E021
:1016100004C0991F961708F0961B881F7A95C9F782
:0816200080950895F894FFCFB6
:10162800554152545F535452494E475E5F5F5E00C6
:101638004D6F68616D65645F484B000100020004EE
:0C1648000008001000200040008000009E
:00000001FF
