:100000000C942A000C943C000C943C000C943C0092
:100010000C943C000C943C000C943C000C943C0070
:100020000C943C000C943C000C944B010C94770114
:100030000C943C000C943C000C943C000C943C0050
:100040000C943C000C943C000C943C000C943C0040
:100050000C943C0011241FBECFE5D8E0DEBFCDBF1D
:1000600020E0A0E6B0E001C01D92AA36B207E1F799
:100070000E94B8000C94A3010C94000041E068E0D9
:1000800086E390E00E94E50008951F93CF93DF93ED
:10009000CDB7DEB729970FB6F894DEBF0FBECDBF40
:1000A00013E01A8388E08983BE016F5F7F4F86E388
:1000B00090E00E94BD008EE390E00E944A011E8302
:1000C00080E48B8380E28F831C8211E01D8380E0BB
:1000D0000E944701CE0103960E94F10019871887FC
:1000E000BE01685F7F4F89E390E00E94BD001987E1
:1000F00082E08887BE01685F7F4F89E390E00E94BD
:10010000BD0029960FB6F894DEBF0FBECDBFDF91BC
:10011000CF911F91089561E089E390E00E94DF0094
:100120008093610062E089E390E00E94DF008093A9
:100130006000809161008130D1F48EE50E9447011A
:1001400061E089E390E00E94DF008111F9CF62E075
:1001500089E390E00E94DF008111F2CF83EC99E007
:100160000197F1F700C0000080E00E944701089568
:100170000E9445000E948B00FDCFFC01DB0111961F
:100180009C911197913031F491818C9180958923C4
:1001900081830895923059F49181DB018C9180958F
:1001A0008923818392818C91892B82830895933056
:1001B00029F49181DB018C91892B81830895FC01C5
:1001C0008081862309F081E00895FC01413021F40B
:1001D0008281682B6283089592816095692362838E
:1001E0000895009709F44FC09093650080936400D0
:1001F000FC018081883411F0803419F493B7892B85
:1002000083BFE0916400F09165008381883018F429
:1002100093B7892B83BFE0916400F09165008181E1
:10022000882311F0823069F499B7892B89BFE09156
:100230006400F09165008181823019F48FB7806885
:100240008FBFE0916400F09165008281823068F494
:1002500099B7892B89BFE0916400F0916500828194
:10026000813019F48FB780688FBFE0916400F091FE
:1002700065008481803311F0803239F493B7892B83
:1002800083BF80E0089581E0089581E008958CBFE8
:1002900081E0089508951F920F920FB60F921124D6
:1002A0002F933F934F935F936F937F938F939F937E
:1002B000AF93BF93EF93FF93809166008F5F80931E
:1002C0006600E0916200F09163000995FF91EF9163
:1002D000BF91AF919F918F917F916F915F914F915E
:1002E0003F912F910F900FBE0F901F9018951F9266
:1002F0000F920FB60F9211242F933F934F935F935A
:100300006F937F938F939F93AF93BF93EF93FF93DD
:10031000809167008F5F80936700E0916800F091A3
:1003200069000995FF91EF91BF91AF919F918F91D6
:100330007F916F915F914F913F912F910F900FBEE1
:0A0340000F901F901895F894FFCF5E
:00000001FF
