:020000040800F2
:1000000000280020CD0C00081D0D00081D0D000863
:100010001D0D00081D0D00081D0D0008000000004A
:100020000000000000000000000000001D0D00089E
:100030001D0D0008000000001D0D00081D0D00082A
:100040001D0D00081D0D00081D0D00081D0D0008E8
:100050001D0D00081D0D00081D0D00081D0D0008D8
:100060001D0D00081D0D00081D0D00081D0D0008C8
:100070001D0D00081D0D00081D0D00081D0D0008B8
:100080001D0D00081D0D00081D0D00081D0D0008A8
:100090001D0D00081D0D00081D0D00081D0D000898
:1000A0001D0D00081D0D00081D0D00081D0D000888
:1000B0001D0D00081D0D00081D0D00081D0D000878
:1000C0001D0D00081D0D00081D0D00081D0D000868
:1000D0001D0D00081D0D00081D0D00081D0D000858
:1000E0001D0D00081D0D0008000000001D0D00087A
:1000F0001D0D00081D0D00081D0D00081D0D000838
:100100001D0D00081D0D00081D0D00081D0D000827
:100110001D0D00081D0D00081D0D00081D0D000817
:100120001D0D00081D0D00081D0D00081D0D000807
:1001300010B5054C237833B9044B13B10448AFF321
:1001400000800123237010BD20000020000000006B
:10015000680D000808B5034B1BB103490348AFF312
:10016000008008BD0000000024000020680D000889
:1001700080B500AF374B01221A80364B04225A60FB
:10018000344B01229A603349334800F0BBFB314BBA
:1001900002221A802F4B04225A602E4B01229A60B1
:1001A0002C492D4800F0AEFB2A4B08221A80294B1F
:1001B00004225A60274B01229A602649264800F003
:1001C000A1FB244B10221A80224B04225A60214B9F
:1001D00001229A601F49204800F094FB1D4B202209
:1001E0001A801C4B04225A601A4B01229A6019494A
:1001F000194800F087FB174B40221A80154B042248
:100200005A60144B01229A601249134800F07AFB9D
:10021000104B80221A800F4B04225A600D4B012292
:100220009A600C490C4800F06DFB0A4B4FF4807249
:100230001A80084B04225A60064B01229A60054935
:10024000054800F05FFBFF21034800F02CFC00BFD5
:1002500080BD00BF3C000020000C014080B582B092
:1002600000AF00237B60B6E05F4B1B689BB20122AE
:1002700019465E4800F0FEFB5B4B5B689BB20122B7
:1002800019465A4800F0F6FB574B9B689BB2012277
:100290001946564800F0EEFB534BDB689BB2012237
:1002A0001946524800F0E6FB4F4A7B6852F823306B
:1002B0009BB2002219464D4800F0DCFB00233B6056
:1002C00082E04B4A3B6852F823309BB219464748BC
:1002D00000F0BCFB0346002B6AD100BF444A3B68D8
:1002E00052F823309BB21946404800F0AFFB03465A
:1002F000002BF3D07B68032B63D801A252F823F0C4
:10030000110300083903000861030008890300088D
:100310003B68002B01D1372362E03B68012B01D100
:1003200034235DE03B68022B01D1312358E03B6868
:10033000032B3FD13F2353E03B68002B01D13823EF
:100340004EE03B68012B01D1352349E03B68022B8D
:1003500001D1322344E03B68032B2DD130233FE011
:100360003B68002B01D139233AE03B68012B01D1D6
:10037000362335E03B68022B01D1332330E03B6864
:10038000032B1BD13D232BE03B68002B01D12F23F6
:1003900026E03B68012B01D12A2321E03B68022B98
:1003A00001D12D231CE03B68032B09D12B2317E03F
:1003B00000BF06E000BF04E000BF02E000BF00E0B5
:1003C00000BF3B6801333B603B68032B7FF779AF8D
:1003D0007B6801337B607B68032B7FF745AF41234C
:1003E00018460837BD4680BD10000020000C0140B3
:1003F0000000002080B485B000AF78600023FB606F
:100400000BE00023BB6002E0BB680133BB60BB684C
:10041000FE2BF9D9FB680133FB60FB687A689A42CE
:10042000EFD800BF00BF1437BD4680BC7047000046
:1004300080B500AF1420FFF7DDFF5B4B4FF4806207
:100440001A80594B04225A60574B01229A60564930
:10045000564800F057FA544B4FF480721A80524BB2
:1004600004225A60504B01229A604F494F4800F0D5
:1004700049FA4D4B4FF400721A804B4B04225A60DC
:10048000494B01229A604849484800F03BFA002253
:100490004FF48061454800F0EDFA00224FF480717E
:1004A000424800F0E7FA00224FF400713F4800F0A4
:1004B000E1FA3D4B01221A803B4B04225A603A4B31
:1004C00001229A603849394800F01CFA364B022262
:1004D0001A80354B04225A60334B01229A6032490C
:1004E000324800F00FFA304B04221A802E4B0422BF
:1004F0005A602D4B01229A602B492C4800F002FAD9
:10050000294B08221A80284B04225A60264B0122CC
:100510009A602549254800F0F5F9234B10221A80EE
:10052000214B04225A60204B01229A601E491F4829
:1005300000F0E8F91C4B20221A801B4B04225A6061
:10054000194B01229A601849184800F0DBF9164B44
:1005500040221A80144B04225A60134B01229A60E5
:100560001149124800F0CEF90F4B80221A800E4B31
:1005700004225A600C4B01229A600B490B4800F090
:10058000C1F90F20FFF736FF382000F053F800F0D4
:100590000FF80F2000F04EF8062000F04BF88020F6
:1005A00000F048F800BF80BD48000020000801406E
:1005B00080B500AF012000F03DF800BF80BD000015
:1005C00080B500AF01224FF48061074800F052FA75
:1005D0003220FFF70FFF00224FF48061024800F045
:1005E00049FA00BF80BD00BF0008014080B582B05D
:1005F00000AF03460A46FB711346BB71FB79012B22
:1006000008D1BB790F2B05D8BB79803BDBB21846EC
:1006100000F010F8FB79022B08D1BB790F2B05D81D
:10062000BB79403BDBB2184600F004F800BF083746
:10063000BD4680BD80B582B000AF0346FB71FB793B
:100640009BB219460B4800F02EFA00224FF480713D
:10065000084800F00FFA00224FF40071054800F03E
:1006600009FA0120FFF7C6FEFFF7AAFF00BF08370F
:10067000BD4680BD0008014080B582B000AF034692
:10068000FB71FB799BB219460B4800F00CFA002273
:100690004FF40071084800F0EDF901224FF4807129
:1006A000054800F0E7F90120FFF7A4FEFFF788FFF7
:1006B00000BF0837BD4680BD0008014080B584B04A
:1006C00000AF78600023FB601CE0FB680133FB6037
:1006D0007B685A1C7A601B781846FFF7CDFFFB68D1
:1006E000102B04D100210220FFF780FF0AE0FB68F5
:1006F000202B07D1FFF75CFF00210120FFF776FFD9
:100700000023FB607B681B78002BDED100BF00BF9D
:100710001037BD4680BD000080B483B000AF786064
:100720007B68174A934206D1164B9B69154A43F0E2
:10073000040393611FE07B68134A934206D1114B77
:100740009B69104A43F00803936114E07B680F4AE9
:10075000934206D10B4B9B690A4A43F01003936105
:1007600009E07B680A4A934205D1064B9B69054A1A
:1007700043F02003936100BF0C37BD4680BC704737
:100780000008014000100240000C01400010014030
:100790000014014080B483B000AF0346FB80FB88A7
:1007A000B3F5004F00F0A580B3F5004F00F3A38030
:1007B000B3F5804F00F09B80B3F5804F00F39B8032
:1007C000B3F5005F00F09180B3F5005F00F3938014
:1007D000B3F5805F00F08780B3F5805F00F38B8016
:1007E000B3F5006F7DD0B3F5006F00F38480B3F5EF
:1007F000806F74D0B3F5806F7DDCB3F5007F6CD073
:10080000B3F5007F77DCB3F5807F64D0B3F5807FEC
:1008100071DC802B5DD0802B6DDC202B48DC002B25
:1008200069DD013B1F2B66D801A252F823F000BFFF
:10083000B7080008BB080008F7080008BF08000850
:10084000F7080008F7080008F7080008C3080008C0
:10085000F7080008F7080008F7080008F70800087C
:10086000F7080008F7080008F7080008C70800089C
:10087000F7080008F7080008F7080008F70800085C
:10088000F7080008F7080008F7080008F70800084C
:10089000F7080008F7080008F7080008F70800083C
:1008A000F7080008F7080008F7080008CB08000858
:1008B000402B0CD01FE000231EE004231CE0082383
:1008C0001AE00C2318E0102316E0142314E0182378
:1008D00012E01C2310E000230EE004230CE00823A8
:1008E0000AE00C2308E0102306E0142304E0182398
:1008F00002E01C2300E0002318460C37BD4680BCF4
:10090000704700BF90B585B000AF786039600023B4
:10091000FB603B681B88FF2B01D87B6801E07B688C
:100920000433FB603B681B881846FFF733FF034620
:100930001A460F239340DA43FB681B681A40FB6892
:100940001A603B685B68042B0BD03B685B68052B27
:1009500007D03B685B68062B03D03B685B68072BBE
:1009600017D13B685B68043B9A003B689B68134364
:1009700003F00F043B681B881846FFF70BFF034684
:1009800004FA03F2FB681B681A43FB681A6000BF95
:1009900058E03B685B68022B1CD17B68DB683A68D7
:1009A00012881A437B68DA603B685B689A003B6890
:1009B0009B68134303F00F043B681B881846FFF73E
:1009C000E9FE034604FA03F2FB681B681A43FB685E
:1009D0001A6037E03B685B68032B1ED17B68DB68DD
:1009E0003A681288D2431A407B68DA603B685B68D9
:1009F000013B9A003B689B68134303F00F043B687C
:100A00001B881846FFF7C6FE034604FA03F2FB688C
:100A10001B681A43FB681A6014E03B685B689A0025
:100A20003B689B68134303F00F043B681B88184620
:100A3000FFF7B0FE034604FA03F2FB681B681A4393
:100A4000FB681A6000BF1437BD4690BD80B483B008
:100A500000AF78600B467B807B689A687B88134088
:100A6000002B01D0012300E0002318460C37BD46BF
:100A700080BC704780B483B000AF78600B467B8049
:100A800013467B707B78012B03D17A887B681A61CF
:100A900004E07B881B041A467B681A6100BF0C3790
:100AA000BD4680BC704780B483B000AF78600B4611
:100AB0007B807A887B68DA6000BF0C37BD4680BCDB
:100AC0007047000080B500AF0348FFF725FE0348DC
:100AD000FFF722FE00BF80BD00080140000C01406E
:100AE00080B584B000AF4FF40073BB800423BB60BB
:100AF0000123FB603B1D19462748FFF703FF4FF416
:100B00008063BB800423BB600123FB603B1D19464F
:100B10002148FFF7F7FE4FF40063BB800423BB605E
:100B20000123FB603B1D19461B48FFF7EBFE4FF40A
:100B30008053BB800423BB600123FB603B1D19462F
:100B40001548FFF7DFFE4FF40053BB800423BB6062
:100B50000123FB603B1D19460F48FFF7D3FE4FF4FE
:100B60008043BB800423BB600123FB603B1D19460F
:100B70000948FFF7C7FE4FF40043BB800423BB6066
:100B80000123FB603B1D19460348FFF7BBFE00BF76
:100B90001037BD4680BD00BF000C014080B485B059
:100BA00000AF78600023FB600BE00023BB6002E035
:100BB000BB680133BB60BB68FE2BF9D9FB6801330E
:100BC000FB60FA687B689A42EFD300BF00BF14371E
:100BD000BD4680BC7047000080B586B000AFFFF70F
:100BE00071FFFFF725FCFFF77BFFFFF7E1FC022118
:100BF0000220FFF7FBFC2E48FFF760FD00210120DB
:100C0000FFF7F4FC2B48FFF759FD6420FFF7C6FF00
:100C1000FFF7CEFC284A07F10C0307CA03C31A806A
:100C2000264A3B4607CA03C31A800023FB751AE015
:100C3000FB7D18333B4413F80C3C1846FFF71CFDB2
:100C4000FB7D18333B4413F8183C9BB25B029BB20C
:100C500019461B48FFF727FF4FF49670FFF79EFFDA
:100C6000FB7D0133FB75FB7D092BE1D9FFF7A0FC70
:100C7000FFF77EFA1348FFF721FD1348FFF71EFD2B
:100C80001E20FFF78BFFFFF793FCFFF7E7FA034601
:100C9000BB75BB7D3F2B02D0412B03D107E0FFF793
:100CA00087FC04E0BB7D1846FFF7E6FC00BFECE7DD
:100CB000800D00088C0D0008B40D0008C00D000860
:100CC000000C01409C0D0008AC0D00080D48854645
:100CD000AFF300800C480D490D4A002302E0D458C0
:100CE000C4500433C4188C42F9D30A4A0A4C002376
:100CF00001E013600432A242FBD300F011F8FFF7C9
:100D00006BFFFEE7002800200000002020000020EC
:100D1000D40D00082000002054000020FEE7000051
:100D200070B500260C4D0D4C641BA410A64209D1D1
:100D300000F01AF800260A4D0A4C641BA410A642C3
:100D400005D170BD55F8043B98470136EEE755F8DC
:100D5000043B98470136F2E7CC0D0008CC0D0008A3
:100D6000CC0D0008D00D0008F8B500BFF8BC08BCD9
:100D70009E467047F8B500BFF8BC08BC9E46704759
:100D800048656C6C6F205E5F5F5F5E004D6F6861F1
:100D90006D65645F48616B696D0000004B6579703B
:100DA0006164206973207265616479002E2E2E2E95
:100DB0002E2E0000393837363534333231300000CA
:0C0DC000100019021258302479010000C4
:040DCC0055010008C5
:040DD00031010008E5
:100DD40001000000020000000800000010000000F4
:100DE400200000004000000080000000000100001E
:0400000508000CCD16
:00000001FF
