:020000040800F2
:100000000028002089020008D9020008D90200084F
:10001000D9020008D9020008D90200080000000037
:10002000000000000000000000000000D9020008ED
:10003000D902000800000000D9020008D902000817
:10004000D9020008D9020008D9020008D902000824
:10005000D9020008D9020008D9020008D902000814
:10006000D9020008D9020008D9020008D902000804
:10007000D9020008D9020008D9020008D9020008F4
:10008000D9020008D9020008D9020008D9020008E4
:10009000D9020008D9020008D9020008D9020008D4
:1000A000D9020008D9020008D9020008D9020008C4
:1000B000D9020008D9020008D9020008D9020008B4
:1000C000D9020008D9020008D9020008D9020008A4
:1000D000D9020008D9020008D9020008D902000894
:1000E000D9020008D902000800000000D902000867
:1000F000D9020008D9020008D9020008D902000874
:10010000D9020008D9020008D9020008D902000863
:10011000D9020008D9020008D9020008D902000853
:10012000D9020008D9020008D9020008D902000843
:1001300010B5054C237833B9044B13B10448AFF321
:1001400000800123237010BD00000020000000008B
:100150002403000808B5034B1BB103490348AFF360
:10016000008008BD000000000400002024030008F7
:1001700080B400AF1D4B1B681C4A43F0040313609E
:100180001A4B1B68194A43F008031360184B0022EE
:100190001A60184B00221A60154B1B68144A43F072
:1001A00040031360134B1B68124A43F4800313602F
:1001B000114B00221A60114B00221A600E4B0E4A9E
:1001C0001B6813600C4B1B680B4A43F01003136051
:1001D0000A4B0A4A1B681360084B1B68074A43F422
:1001E0008013136000BFBD4680BC704718100240EA
:1001F0000008014004080140000C0140040C0140CB
:1002000080B485B000AF78600023FB6002E0FB683B
:100210000133FB60FA687B689A42F8D300BF00BFE5
:100220001437BD4680BC704780B500AFFFF7A0FF14
:10023000134B1B685B0803F00103002B0DD1114B1E
:100240001B68104A83F00203136000BF0C4B1B684D
:100250005B0803F00103002BF8D0094B1B685B0B14
:1002600003F00103012B05D1064B1B68054A83F4FB
:100270000053136042F21070FFF7C2FFD8E700BFCF
:10028000080801400C0C01400D488546AFF3008082
:100290000C480D490D4A002302E0D458C4500433E1
:1002A000C4188C42F9D30A4A0A4C002301E01360B7
:1002B0000432A242FBD300F011F8FFF7B5FFFEE7CE
:1002C0000028002000000020000000204403000857
:1002D000000000201C000020FEE7000070B5002692
:1002E0000C4D0D4C641BA410A64209D100F01AF865
:1002F00000260A4D0A4C641BA410A64205D170BD0D
:1003000055F8043B98470136EEE755F8043B98470B
:100310000136F2E73C0300083C0300083C030008F8
:1003200040030008F8B500BFF8BC08BC9E46704703
:0C033000F8B500BFF8BC08BC9E46704742
:04033C00550100085F
:04034000310100087F
:040000050800028964
:00000001FF
